:100000000C9463000C94BD1E0C94961E0C948B00F3
:100010000C948B000C948B000C948B000C945B2044
:100020000C948B000C948B000C948B000C94382156
:100030000C948B000C948B000C948B000C948B0014
:100040000C944C1E0C948B000C940A1F0C94E41E10
:100050000C948B000C948B000C948B000C948B00F4
:100060000C943C1F0C948B0000000000240027001F
:100070002A0000000000250028002B0000000008D6
:10008000000201000003040700000000000000005F
:1000900000000000230026002900040404040404D6
:1000A0000404020202020202030303030303010227
:1000B00004081020408001020408102001020408F6
:1000C00010203922FC3411241FBECFEFD8E0DEBF50
:1000D000CDBF11E0A0E0B1E0EAE1FAE702C005908F
:1000E0000D92A23FB107D9F725E0A2EFB1E001C020
:1000F0001D92A038B207E1F710E0C2E6D0E004C0DC
:100100002197FE010E941C38C136D107C9F70E9411
:1001100039230C94003D0C940000CF92DF92EF92B3
:10012000FF92DC01A43F81E0B807D4F5A53BB105FF
:1001300014F0A4EBB0E0409125052DE730E0241B3E
:10014000310947FD3395220F331F220F331F6901F9
:10015000330FEE08FF084091260521E732E0241B0B
:10016000310947FD3395220F331F220F331F032E12
:10017000000C440B550B2C193D094E095F09B7FFC4
:1001800002C0B0E0A0E00E944E3624EB30E040E038
:1001900050E00E942436C20ED31EE41EF51ED60186
:1001A000E0912405EC3080F5209125058DE790E065
:1001B000821B910927FD9395880F991F880F991F1E
:1001C000A817B90784F02091260581E792E0821BE9
:1001D000910927FD9395880F991F880F991FA817DC
:1001E000B9070CF4CD010297880F991F4FB7F89407
:1001F0002E2F30E0F901EE0FFF1FE20FF31FE15049
:10020000FB4F928381834FBFFF90EF90DF90CF90A1
:10021000089520E0DC0160FF03C001C02D932D9301
:100220006250E0F77040D0F70895833081F028F4F1
:10023000813099F08230A9F008958730A9F0883094
:10024000C9F08430B1F4809180008F7D03C080912B
:1002500080008F7780938000089584B58F7784BD68
:10026000089584B58F7DFBCF8091B0008F77809308
:10027000B00008958091B0008F7DF9CF1F93CF9388
:10028000DF93282F30E0F901E458FF4F8491F90102
:10029000E255FF4FD491F901E656FF4FC491CC23AC
:1002A000A9F0162F81110E941501EC2FF0E0EE0F3E
:1002B000FF1FEE58FF4FA591B4918FB7F894EC91C2
:1002C000111108C0D095DE23DC938FBFDF91CF9151
:1002D0001F910895DE2BF8CFCF93DF9390E0FC01C0
:1002E000E255FF4F249186569F4FFC01849188234D
:1002F000C9F090E0880F991FFC01E859FF4FA591C4
:10030000B491FC01EE58FF4FC591D49161110DC01D
:100310009FB7F8948C91209582238C938881282311
:1003200028839FBFDF91CF910895623051F49FB72A
:10033000F8943C91822F809583238C93E8812E2B17
:10034000EFCF8FB7F894EC912E2B2C938FBFEACF81
:100350000F931F93CF93909124059C3008F05BC0BE
:100360008B01C82F61E00E946C0180912405282F29
:1003700030E0F901EE0FFF1FE20FF31FE150FB4FDA
:10038000CF739081907CC92BC0831092250524ECFB
:1003900039E0201B310B359527953595279520930E
:1003A00026052CE0622F0E94E837829FB0011124BD
:1003B00030E020E0AB01420F531FFA01EE0FFF1FA8
:1003C000E40FF51FE150FB4F908196FD16C02F5FA3
:1003D0003F4F2C30310571F781110FC01092800012
:1003E00082E0809381001092850010928400B19A7F
:1003F00080916F00826080936F00E09124058E2FC2
:1004000090E0FC01EE0FFF1FE80FF91FE150FB4FDA
:1004100080818064808380912405CF911F910F910A
:10042000089564EC79E00C94A8011F93CF93DF93B7
:10043000182FEB0161E00E946C01209739F460E015
:10044000812FDF91CF911F910C943E01CF3FD105B9
:1004500011F461E0F5CFE12FF0E0E458FF4FE491B3
:10046000E33031F140F4E130B1F0E230E1F0C03896
:10047000D1057CF7E4CFE73029F1E83059F1E430D9
:10048000B1F780918000806280938000D0938B00D0
:10049000C0938A0004C084B5806884BDC7BDDF9165
:1004A000CF911F91089584B5806284BDC8BDF7CFF8
:1004B00080918000806880938000D0938900C093F1
:1004C0008800EDCF8091B00080688093B000C09329
:1004D000B300E5CF8091B00080628093B000C093FC
:1004E000B400DDCF8E50806480937C0080917A00D0
:1004F000806480937A0080917A0086FDFCCF8091A1
:1005000078009091790008953FB7F8948091CD02DA
:100510009091CE02A091CF02B091D00226B5A89BB7
:1005200005C02F3F19F00196A11DB11D3FBFBA2F85
:10053000A92F982F8827BC01CD01620F711D811D45
:10054000911D42E0660F771F881F991F4A95D1F7CA
:1005500008958F929F92AF92BF92CF92DF92EF92C7
:10056000FF924B015C010E9484026B017C010E949E
:1005700084026C197D098E099F09683E73408105CC
:100580009105A8F321E0821A9108A108B10888EE2C
:10059000C80E83E0D81EE11CF11C81149104A10453
:1005A000B10429F7FF90EF90DF90CF90BF90AF900C
:1005B0009F908F9008952FB7F8946091C902709121
:1005C000CA028091CB029091CC022FBF0895CF92A6
:1005D000DF92EF92FF920F931F930E94DB02009134
:1005E0004E0310914F0320915003309151036B0142
:1005F0007C01C01AD10AE20AF30AA701960121156B
:1006000031054105510521F421E030E040E050E0A2
:10061000E0914C03F0914D0388EE93E0E89FB00128
:10062000E99F700DF89F700D1124072E000C880BA8
:10063000990B0E948D363093FD032093FC0310929A
:100640004D0310924C030E94DB0260934E037093A3
:100650004F0380935003909351031F910F91FF908C
:10066000EF90DF90CF90089580E991E0089508958C
:1006700008950895AF92BF92CF92DF92EF92FF92CA
:100680000F931F93CF93DF936C017B018B01040FBA
:10069000151FEB015E01AE18BF08C017D10759F056
:1006A0006991D601ED91FC910190F081E02DC60198
:1006B0000995892B79F7C501DF91CF911F910F9192
:1006C000FF90EF90DF90CF90BF90AF900895FC0126
:1006D000448155816081718182E593E00C943A03F5
:1006E000FC01538D448D252F30E0842F90E0821B38
:1006F000930B541710F0CF96089501970895FC01BD
:10070000918D828D981761F0A28DAE0FBF2FB11D14
:100710005D968C91928D9F5F9F73928F90E008956C
:100720008FEF9FEF0895FC01918D828D981731F026
:10073000828DE80FF11D858D90E008958FEF9FEF7A
:100740000895FC01918D228D892F90E0805C9F4F50
:10075000821B91098F739927089582E593E00E9487
:10076000A10321E0892B09F420E0822F089580E085
:1007700090E0892B29F00E94AD0381110C940000B8
:100780000895FC01A48DA80FB92FB11DA35ABF4F26
:100790002C91848D90E001968F739927848FA68980
:1007A000B7892C93A089B1898C91837080648C93D4
:1007B000938D848D981306C00288F389E02D808183
:1007C0008F7D80830895EF92FF920F931F93CF93B5
:1007D000DF93EC0181E0888F9B8D8C8D98131AC07C
:1007E000E889F989808185FF15C09FB7F894EE8963
:1007F000FF896083E889F9898081837080648083C0
:100800009FBF81E090E0DF91CF911F910F91FF900A
:10081000EF900895F62E0B8D10E00F5F1F4F0F73B2
:100820001127E02E8C8D8E110CC00FB607FCFACF6D
:10083000E889F989808185FFF5CFCE010E94C10347
:10084000F1CFEB8DEC0FFD2FF11DE35AFF4FF0823E
:100850009FB7F8940B8FEA89FB8980818062CFCFA4
:10086000CF93DF93EC01888D8823B9F0AA89BB89E7
:10087000E889F9898C9185FD03C0808186FD0DC0D2
:100880000FB607FCF7CF8C9185FFF2CF808185FFF3
:10089000EDCFCE010E94C103E9CFDF91CF91089542
:1008A00020914802260F3327331F21323105ECF403
:1008B00020911C03FC0190E080E0243069F082E08C
:1008C0000895A09148022191AC01485D5D4FA40FAD
:1008D000B52FB11D2C930196861798F3809148028D
:1008E000680F6093480280E0089581E008951092B7
:1008F0001C0381E080931B031092F60261E082E109
:100900000E943E0161E083E10E943E01E9EBF0E0DC
:1009100080818E7F808380818D7F808388E4809337
:10092000B80085E48093BC000895CF93DF9391E0F5
:10093000909327028823B9F0C091B800D091BA00F3
:100940008091BC008A7B8093BC0060E082E10E94C1
:100950003E0160E083E10E943E010E947704D09353
:10096000BA00C093B800DF91CF9108958F929F9203
:10097000AF92BF92CF92DF92EF92FF920F931F93AD
:10098000CF93DF93D0914503D13208F0D7C0182F11
:10099000C09144030E9484026B017C0180911C037E
:1009A00081116BC082E080931C0310931B038FEFB7
:1009B00080931A0310921903D0931803A4E2B3E0B2
:1009C000E8EFF2E080E0D81391C01092F702809136
:1009D000F702CC0FC82BC093F7028091F60281304A
:1009E00009F088C01092F6020E9484026B017C011B
:1009F0008091F7028093BB0080911E0390911F03AA
:100A0000A0912003B0912103892B8A2B8B2BA1F07D
:100A10000E94840200911E0310911F032091200365
:100A2000309121036C197D098E099F09061717075C
:100A30002807390708F442C08091BC0083FDD8CF55
:100A400085EC8093BC000E9484026B017C01809144
:100A50001C03823009F450C080911A038F3F09F4BF
:100A60006FC080911A03803209F46CC080911A0320
:100A7000803309F469C084E026C080911E03909100
:100A80001F03A0912003B0912103892B8A2B8B2B6C
:100A900009F484CF0E94840280901E0390901F036B
:100AA000A0902003B09021036C197D098E099F0945
:100AB00086169706A806B90608F070CF80911D0328
:100AC0000E94950485E01092230310924503109232
:100AD0002203DF91CF911F910F91FF90EF90DF9054
:100AE000CF90BF90AF909F908F9008959D919193DC
:100AF0008F5F69CF85EEA5CF80911E0390911F0374
:100B0000A0912003B0912103892B8A2B8B2B09F410
:100B10009ECF0E94840200911E0310911F0320911A
:100B20002003309121036C197D098E099F09061756
:100B300017072807390708F08ACFC0CF81E0C3CF55
:100B400080E0C1CF82E0BFCF83E0BDCF0895E091C8
:100B5000700280916F02E81730F4F0E0E95FFD4F1A
:100B6000808190E008958FEF9FEF0895909170023B
:100B700080916F022FEF3FEF981748F4E92FF0E0D4
:100B8000E95FFD4F208130E09F5F90937002C901C3
:100B9000089580916F0290917002891B990B0895BE
:100BA000CF92DF92EF92FF920F931F93CF93DF9339
:100BB0007C01CB018A0120912203222389F0EB01E1
:100BC0006B01C40ED51ECC15DD0569F06991D70106
:100BD000ED91FC910190F081E02DC7010995F3CFD3
:100BE000642F0E945004C801DF91CF911F910F9193
:100BF000FF90EF90DF90CF900895CF93DF931F92F7
:100C0000CDB7DEB76983209122032223F9F020912A
:100C10004503203258F021E030E0FC013383228389
:100C200090E080E00F90DF91CF91089580912303B1
:100C3000E82FF0E0EC5DFC4F998190838F5F80930B
:100C400023038093450381E090E0ECCF61E0CE0187
:100C500001960E945004F7CFCF93DF93EA0191E011
:100C60009093220380934403109223031092450330
:100C70008FEE93E00E94FD0568818FEE93E00E9465
:100C8000FD0581E00E94B60491E0811190E0892F7A
:100C9000DF91CF91089590E080E00895CF92DF92A8
:100CA000EF92FF92CF93DF93EC01072E000C880B9D
:100CB000990B0E9407356B017C0120E030E040E495
:100CC0005FE30E94663520E030E048E452E40E9491
:100CD0002B370E949D37C617D707D4F020E030E0AD
:100CE00040EA5FE3C701B6010E94663520E030E0CC
:100CF00048E452E40E942B3720E030E040E85FE314
:100D00000E94BF360E949D3721E06C177D070CF4CE
:100D100020E0822F90E0DF91CF91FF90EF90DF9065
:100D2000CF9008958F929F92AF92BF92CF92DF9211
:100D3000EF92FF920F931F93CF93DF93FC012081DB
:100D40003181E091EF02F091F00201E010E02E1706
:100D50003F070CF045C0D901AA0FBB1FE091ED027F
:100D6000F091EE02EA0FFB1FA080B180890100958F
:100D700010950170112720FD27C02CE93FEFEA01F3
:100D80006B017C014901840E951EB401C5010E94CE
:100D90004E0621E030E0892BD1F48C0E9D1EB4016B
:100DA000C5010E944E0622E030E0892B81F4BE018D
:100DB000680D791DC5010E944E0623E030E0892BA5
:100DC00031F40FEF1FEF0CC024E630E0D8CFF6016E
:100DD0008081918101968217930784F491838083A7
:100DE000C801DF91CF911F910F91FF90EF90DF909D
:100DF000CF90BF90AF909F908F90089511821082F6
:100E0000F701808191810196E9CF0F931F93CF93D2
:100E1000DF93209105022F5F322F37703093050248
:100E200020FF2BC020E831FD2064347009F02062DF
:100E3000205FFC01EC01239600E011E0648566234D
:100E400029F070E0C8010E9408386F5F6187322F77
:100E5000369F030E30E0311D1124311110C016826F
:100E6000662311F0615061873196EC17FD0731F769
:100E7000DF91CF911F910F91089520E0D4CF315091
:100E80003683EECF4F925F926F927F928F92AF92A6
:100E9000BF92CF92DF92EF920F931F93CF93DF9386
:100EA0003C01EB010E948402F30127853089621B1B
:100EB000730B6A307105B0F3F894E881F9817BB166
:100EC00070616BB16F7E6BB9CA848F812C2D281B2A
:100ED000822F2F83BF844A805B801D850C85DE8432
:100EE0001F5F0F5FD3949E813885A984EB84418175
:100EF000D20120E0C32F522F322F31814427889412
:100F00003111380F08F43FEF8195889410FD430F9D
:100F10004795889411FD430F4795889412FD430F20
:100F20004795889413FD430F4795889414FD430F0C
:100F30004795889415FD430F4795889416FD430FF8
:100F40004795889417FD430F47958894232F1111D7
:100F5000242F8C0D422F002C7BB900C047FF6BB9AA
:100F600030812227889400C000C0002C6BB9311159
:100F7000390F00C0002C7BB900C046FF6BB908F4E4
:100F80003FEF9195889400C000C0002C6BB900FD24
:100F9000230F00C0002C7BB900C045FF6BB927951B
:100FA000889401FD230F00C000C0002C6BB9279569
:100FB000889400C0002C7BB900C044FF6BB902FDCF
:100FC000230F2795889400C000C0002C6BB903FD47
:100FD000230F00C0002C7BB900C043FF6BB92795DD
:100FE000889404FD230F00C000C0002C6BB9279526
:100FF000889400C0002C7BB900C042FF6BB905FD8E
:10100000230F2795889400C000C0002C6BB906FD03
:10101000230F00C0002C7BB900C041FF6BB927959E
:10102000889407FD230F00C000C0002C6BB92795E2
:10103000889400C0002C7BB900C040FF6BB9432FDF
:101040000111422F9A0D00C000C0002C6BB900C0E6
:1010500000C0002C7BB900C047FF6BB9328122274A
:10106000889400C000C0002C6BB931113C0F00C047
:10107000002C7BB900C046FF6BB908F43FEFEB0DC5
:10108000F11D00C000C0002C6BB9D0FC230F00C0C4
:10109000002C7BB900C045FF6BB927958894D1FC23
:1010A000230F00C000C0002C6BB92795889400C0A6
:1010B000002C7BB900C044FF6BB9D2FC230F2795ED
:1010C000889400C000C0002C6BB9D3FC230F00C073
:1010D000002C7BB900C043FF6BB927958894D4FCE2
:1010E000230F00C000C0002C6BB92795889400C066
:1010F000002C7BB900C042FF6BB9D5FC230F2795AC
:10110000889400C000C0002C6BB9D6FC230F00C02F
:10111000002C7BB900C041FF6BB927958894D7FCA0
:10112000230F00C000C0002C6BB92795889400C025
:10113000002C7BB900C040FF6BB9432FD110422F68
:10114000C19500C000C0002C6BB9CE0D00C000C01E
:101150007BB900C047FF6BB931812227889400C05A
:1011600000C0002C6BB93111380F00C0002C7BB9C6
:1011700000C046FF6BB908F43FEF8195889400C02A
:1011800000C0002C6BB910FD230F00C0002C7BB9F0
:1011900000C045FF6BB92795889411FD230F00C04F
:1011A00000C0002C6BB92795889400C0002C7BB937
:1011B00000C044FF6BB912FD230F2795889400C02F
:1011C00000C0002C6BB913FD230F00C0002C7BB9AD
:1011D00000C043FF6BB92795889414FD230F00C00E
:1011E00000C0002C6BB92795889400C0002C7BB9F7
:1011F00000C042FF6BB915FD230F2795889400C0EE
:1012000000C0002C6BB916FD230F00C0002C7BB969
:1012100000C041FF6BB92795889417FD230F00C0CC
:1012200000C0002C6BB92795889400C0002C7BB9B6
:1012300000C040FF6BB9432F1111422F8C0D00C02D
:1012400000C0002C6BB9119709F086CE20EE31E07A
:10125000D2010E942238DC01CB01F4E0B695A795BB
:1012600097958795FA95D1F730E020E0B901EAE942
:101270004E9E040C611D5E9E600D711D1124650D56
:10128000711D860F971FA11DB11D893E43E0940774
:10129000A105B10508F434C0885E9340A109B109E5
:1012A00042E0B695A795979587954A95D1F747E07F
:1012B000849F080E211D949F200D311D1124290F9C
:1012C000311D6091040270E0860F971F820F931FFB
:1012D0004091C9025091CA026091CB027091CC0238
:1012E000292F3327420F531F611D711D4093C902DF
:1012F0005093CA026093CB027093CC028093040295
:1013000078940E948402F301708B6787DF91CF91FC
:101310001F910F91EF90DF90CF90BF90AF908F9083
:101320007F906F905F904F900895549A0895EF9238
:10133000FF920F931F93CF93DF93CDB7DEB76297E2
:101340000FB6F894DEBF0FBECDBF7C01DC011C964A
:101350008C917A8369835C834B835E834D830D8795
:101360001E872F87813001F5CE0101960E94050767
:1013700083E0888B1A8A198AD701ED91FC91048445
:10138000F585E02DBE016F5F7F4FC701099562961D
:101390000FB6F894DEBF0FBECDBFDF91CF911F9186
:1013A0000F91FF90EF9008951C861B861A86198670
:1013B00018861F82DDCFEF92FF920F931F93CF937A
:1013C000DF93CDB7DEB762970FB6F894DEBF0FBEDE
:1013D000CDBF7C01DC011C968C917A8369835C8390
:1013E0004B835E834D830D871E872F878130F9F4F1
:1013F000CE0101960E940507188A1A8A198AD70118
:10140000ED91FC910484F585E02DBE016F5F7F4F67
:10141000C701099562960FB6F894DEBF0FBECDBF27
:10142000DF91CF911F910F91FF90EF9008951C864F
:101430001B861A86198618861F82DECF0F931F938C
:10144000CF930E94DB0200910002109101022091D3
:10145000020230910302601B710B820B930B653FFC
:10146000714081059105B8F0C091FF01CF5FC09335
:10147000FF010E94DB0260930002709301028093DF
:10148000020290930302C53010F01092FF01809188
:10149000FF0180939002CF911F910F9108958F9239
:1014A0009F92AF92BF92CF92DF92EF92FF92A89558
:1014B000C12CD12C76014C01B12CA12CC814D9041B
:1014C000EA04FB0460F461E070E080E090E00E94D8
:1014D000A9028FEFC81AD80AE80AF80AEFCFFF90DE
:1014E000EF90DF90CF90BF90AF909F908F90089536
:1014F0001F93CF93DF93182FEB018D7F813091F4F1
:10150000209729F0653B710510F0C4EBD0E08AE02C
:1015100090E00E941102CE010E948D0084EF91E0C4
:101520000E944F0A1250123090F4209729F0C53BC8
:10153000D10510F0C4EBD0E08BE090E00E941102E6
:10154000CE010E948D0084EF91E00E944F0AE0914D
:1015500024058E2F90E0FC01EE0FFF1FE80FF91F0E
:10156000E150FB4F80818F7B8083DF91CF911F9172
:10157000089590E080E008954F925F926F927F927D
:101580008F929F92AF92BF92CF92DF92EF92FF9293
:101590000F931F93CF93DF9300D01F92CDB7DEB789
:1015A0006A0119821A821B828823C9F18B01E1E04A
:1015B000F0E0482E512C712C612CD8012D918D0119
:1015C000222349F17F01B1E0EB1AF108D601AE0DFB
:1015D000BF1D8C908820F9F030E050E040E02F5F94
:1015E0003F4F4F4F5F4FC301B2010E94D8379B015D
:1015F000AC01912CB12CA12CC501B4016F5F7F4FC0
:101600008F4F9F4F0E94D837A1E0B0E0AC0FBD1FB5
:10161000AE0DBF1D8C933196E430F10571F66981F2
:101620007A818B810F900F900F90DF91CF911F9156
:101630000F91FF90EF90DF90CF90BF90AF909F9071
:101640008F907F906F905F904F900895CF92DF9230
:10165000EF92FF920F931F93CF93DF93F82E809119
:10166000FE039091FF03A0910004B0910104892B27
:101670008A2B8B2BD9F00E94840200914803109191
:10168000490320914A0330914B03601B710B820B7D
:10169000930B0091FE031091FF0320910004309101
:1016A00001046017710782079307C8F20E94840241
:1016B000609348037093490380934A0390934B03CC
:1016C000E0910604F0910704309759F0409102042C
:1016D0005091030460910404709105048F2D0995C5
:1016E000F82EC0914603D0914703209721F1EC8456
:1016F0008091FC039091FD038436910508F41C86CB
:10170000E881F981C280D380AE01475F5F4FBE019F
:101710006A5F7F4F8F2D0E94BC0A8B01282F4D8559
:101720005E856A817B81CE01F6010995EC860C808D
:10173000DD81C02DDACF80914C0390914D039C0147
:101740002F5F3F4F30934D0320934C03499754F044
:10175000DF91CF911F910F91FF90EF90DF90CF908D
:101760000C94E702DF91CF911F910F91FF90EF90C2
:10177000DF90CF9008954093F3025093F40260936A
:10178000F5028091FB030E94260B90E080E00C9410
:101790004F0AAF92BF92CF92DF92EF92FF920F93D8
:1017A0001F93CF93DF936C01F62E8091FE039091EF
:1017B000FF03A0910004B0910104892B8A2B8B2B8D
:1017C000D9F00E94840200914803109149032091AE
:1017D0004A0330914B03601B710B820B930B0091FA
:1017E000FE031091FF032091000430910104601763
:1017F000710782079307C8F20E948402609348032E
:101800007093490380934A0390934B03E09106043D
:10181000F0910704309759F040910204509103046D
:1018200060910404709105048F2D0995F82EC091E4
:101830004603D0914703209719F1EC848091FC0373
:101840009091FD038436910508F41C86E881F981A6
:10185000A080B180AE01475F5F4FBE016A5F7F4FDE
:101860008F2D0E94BC0A4D855E858B01282FB60105
:10187000CE01F5010995EC860C80DD81C02DDBCF12
:1018800080914C0390914D039C012F5F3F4F30930B
:101890004D0320934C03499764F0DF91CF911F9142
:1018A0000F91FF90EF90DF90CF90BF90AF900C948E
:1018B000E702DF91CF911F910F91FF90EF90DF90A2
:1018C000CF90BF90AF9008950F931F93CF93DF9366
:1018D00000D01F92CDB7DEB719821A821B8260E05A
:1018E000CE0101960E94C90B009146031091470357
:1018F0000115110591F0F80182819381009749F05B
:1019000025853685B901660F771F620F731F0E9408
:101910000901F80104811581EBCF0F900F900F9012
:10192000DF91CF911F910F910895FC0185859685D8
:1019300008950F931F93CF93DF9300D01F92CDB7DD
:10194000DEB7AB0119821A821B82DC01ED91FC919A
:101950000190F081E02D00E010E020E0BE016F5F1B
:101960007F4F09950F900F900F90DF91CF911F91AE
:101970000F9108954F925F926F927F928F929F92F4
:10198000AF92BF92DF92EF92FF920F931F93CF938C
:10199000DF938C01EB0188818B32D1F18D32C9F557
:1019A0002196EE24E394888190ED980F9A3010F000
:1019B0008E3289F560E070E0CB01FE012191A0ED4F
:1019C0008A2E820E39E0381508F440C06A3929E9B8
:1019D0007207820729E1920708F04DC0AAE0B0E043
:1019E0009B01AC010E944336912CB12CA12C240107
:1019F00035014094509460947094461657066806DA
:101A00007906C8F1680D791D8A1D9B1DEF01D5CFA0
:101A10002196E12CC8CFF801108211821282138224
:101A200014821582168217821086C801DF91CF9129
:101A30001F910F91FF90EF90DF90BF90AF909F901C
:101A40008F907F906F905F904F900895211113C0F9
:101A5000F80160837183828393830E940535F801C6
:101A6000648375838683978387E0E11001C086E0F5
:101A7000F8018087DACFF12CEAE08E2E912CA12C90
:101A8000B12C61157105F0E88F07910540F0A501B3
:101A900094010E948D36CA01B901F394F2CFFE0180
:101AA000299130ED320F3A3010F4F394F8CF2E3202
:101AB000F1F4EF012196FE012196208150EDD52E03
:101AC000D20E29E02D1598F06C3C3CEC73073CE0FD
:101AD0008307910580F7AAE0B0E09B01AC010E946A
:101AE00043366D0D711D811D911DFA94E4CF208147
:101AF0002F7DD0E0C0E0253409F04FC021812D3288
:101B0000A9F53296BB24B394DF01D0E0C0E02F2DBD
:101B10000F2C000C330B4AE0A42EFD01DD9040EDAC
:101B20004D0D4A30A8F5AC9EA001AD9E500D11247C
:101B3000CD2DDD0CDD0BE097C40FD51FAE01420F9C
:101B4000531F473251054CF3BB20B9F080E090E0C1
:101B5000A0E0B0E8E11003C080E090E0DC01F80113
:101B600084839583A683B78388E083CF2B3219F0D3
:101B70003196B12CC9CF3296FCCF80E090E0A0E83E
:101B8000BFEFE110ECCF80E090E0A0E8BFE7E7CF47
:101B9000BB2019F0D195C195D109208121113BCFEE
:101BA000CF0DD11DF7FCDA950E9405351C161D06D8
:101BB000E4F4F12CC0FF0CC024E0F29EF0011124EB
:101BC000EF5BFE4F20813181428153810E94663557
:101BD000D595C795F394209769F7E1109058F801CF
:101BE0006483758386839783BFCFD195C195D109CF
:101BF000F12C209791F3C0FF0CC024E0F29EF0017D
:101C00001124E75DFE4F20813181428153810E9482
:101C10006635D595C795F394ECCF80339CF08A3325
:101C200024F08F3524F08B3724F481E0089581343B
:101C30004CF08B35D4F393ED980F81E09230B0F3F4
:101C400080E008958B32B9F7F0CFFC0182858111D5
:101C500014C0A281B381848195812FEF3FEFA81733
:101C6000B90730F4CD010196938382832C9130E043
:101C700037FD20E0218781E08287818508951F93C9
:101C8000CF93DF93EC01CE010E94250E8B303CF404
:101C900089305CF48823E9F090E080E01CC0803259
:101CA00021F08F3221F08D30B9F71A86ECCF1A86E9
:101CB000CE010E94250E8A3229F08F32D1F082E0C7
:101CC00090E009C01A8610E0CE010E94250E811115
:101CD00006C081E090E0DF91CF911F9108958F328F
:101CE00011F41111E2CF11E08A3209F010E01A86E6
:101CF000EBCF1A86CE010E94250E882351F38A303D
:101D0000C1F7C1CFCF92DF92EF92FF92CF93DF93D3
:101D1000CDB7DEB729970FB6F894DEBF0FBECDBFA3
:101D2000009749F0FC0184818F77873040F485303B
:101D300068F48330E0F460E070E0CB010BC08830E1
:101D4000D1F7C080D180E280F38020C060817181B2
:101D50008281938129960FB6F894DEBF0FBECDBF66
:101D6000DF91CF91FF90EF90DF90CF900895608149
:101D70007181CE0101960E94BA0C89858630F1F0FE
:101D80008830C9F6CD80DE80EF80F88420E030E036
:101D9000A901C701B6010E94D33787FDCCCF20E04F
:101DA00030E040E85FE4C701B6010E940035181634
:101DB00014F2C701B6010E94A437CCCF69817A81A1
:101DC0008B819C81C7CFCF92DF92EF92FF92CF930E
:101DD000DF93CDB7DEB729970FB6F894DEBF0FBEFD
:101DE000CDBF009749F0FC0184818F77873030F4B4
:101DF000853058F4833000F580E011C08830E1F779
:101E0000C080D180E280F38026C080819181A28150
:101E1000B3818F3F9105A105B10509F068F72996B7
:101E20000FB6F894DEBF0FBECDBFDF91CF91FF900C
:101E3000EF90DF90CF90089560817181CE0101967F
:101E40000E94BA0C8985863001F18830A9F6CD80D0
:101E5000DE80EF80F88420E030E0A901C701B60100
:101E60000E94D33787FDC8CF20E030E04FE753E42E
:101E7000C701B6010E94003518160CF4BDCFC7018A
:101E8000B6010E94A437862FCACF89819A81AB817F
:101E9000BC81BFCF8EE00E9472022091600530911C
:101EA000610528173907C0F48FE00E947202209163
:101EB0006005309161052817390770F480E10E94B0
:101EC000720220916005309161052817390720F4CE
:101ED0001092500580E0089581E0809350050895A8
:101EE000FC0180819181892B21F460E070E0CB01BD
:101EF00008956EE77FE090E080E008950895FC018A
:101F000084819581009799F02281338146815781A0
:101F10002417350718F0158214820895A9014F5F20
:101F20005F4F53834283820F931FFC0160830895A8
:101F3000DF92EF92FF920F931F93CF93DF93CDB772
:101F4000DEB728970FB6F894DEBF0FBECDBF8C0169
:101F50007B01DC011696ED91FC9122813381848115
:101F6000958193838283FA83E9831C821B823E835B
:101F70002D83821B930B98878F83C8010E94250EA7
:101F8000D82EF8011286C8010E94250ED8011A9693
:101F90001C92D816A9F1811110C081E090E028961A
:101FA0000FB6F894DEBF0FBECDBFDF91CF911F916A
:101FB0000F91FF90EF90DF9008958C35D9F4C80110
:101FC0000E94250E882349F3853719F484E090E0B8
:101FD000E6CFE3EAF1E09081992351F0891306C03E
:101FE0008181811105C082E090E0D9CF3296F3CF94
:101FF000F8011286682FCE0101960E947F0FC3CF91
:1020000060E0CE0101960E947F0F8D819E81892B19
:1020100079F0E981FA818B819C812F813885AC012F
:10202000421B530B82819381840F951F938382837C
:102030008D819E81D7018D939C93892B19F483E028
:1020400090E0ADCF90E080E0AACFCF93DF93DC01AA
:10205000EB01EC81FD818A819B810896E817F907E5
:1020600030F4F0E0E0E0CF01DF91CF9108953897B0
:10207000FD83EC833097A9F31296CD91DC911397F1
:10208000209791F0CF018C1B9D0B23E095958795B0
:102090002A95E1F78D831396FC93EE9312971582A0
:1020A000148217821682DFCF1196FC93EE93F3CF42
:1020B0008F929F92AF92BF92CF92DF92EF92FF9258
:1020C0000F931F93CF93DF93CDB7DEB7CD54D109D4
:1020D0000FB6F894DEBF0FBECDBF8C016B010E941E
:1020E0003F0E2E969FAF8EAF2E97CE01845B9F4FF3
:1020F0000E94700F672B09F08BC280FD89C2C80156
:102100000E94250E873209F4EDC11CF5823209F4D4
:10211000E9C1C8010E94250EF82EAE014F5F5F4F46
:102120004A01E12C5A018F2D0E940D0E882309F4DB
:10213000F6C15FE3E51609F4F2C1D8011A961C92C4
:10214000E394F401F1924F01C8010E94250EF82E8C
:10215000EACF8B3509F468C08B37D9F6D6011496CF
:102160008C9114978078806214968C9314971196B2
:102170001C921E9213961C921E921297F801808553
:10218000882309F4ACC1C8010E94250E8B3709F0E1
:1021900065C0D8011A961C92C8010E943F0E2C9669
:1021A0009FAF8EAF2C97CE01865B9F4F0E94700F22
:1021B000672B09F017C180FD15C1C8010E94250ECB
:1021C0008D3709F464C0D8016D917C91C6010E94DD
:1021D00025105C01892B09F47EC1C8010E94250EDF
:1021E000873209F496C0823209F493C0D80116965A
:1021F000ED91FC9122813381848195819383828347
:10220000FA83E9831C821B823E832D83821B930BFE
:1022100098878F83C8010E94250EF82E8111FDC07A
:10222000EE24E394F12C7CC0D60114968C91149783
:102230008078806414968C93149711961C921E9249
:1022400013961C921E921297F8018085882309F438
:1022500046C1C8010E94250E8B3519F082E0E82E98
:102260003CC1D8011A961C92C8010E943F0E9A8365
:102270008983CE0101960E94700F672B09F046C03A
:1022800080FD44C0C8010E94250E8D3591F4F801EF
:102290001286E12C22C180FD39C0C8010E94250EA2
:1022A0008D35A9F3C8010E94250E8C32B9F6F801CC
:1022B0001286D8016D917C91C6010E942510BC0147
:1022C000892B09F408C1F801908591509087C801C5
:1022D0000E9458109A838983D80118968C91189778
:1022E0008F5F18968C93CE0101960E94700F672B1A
:1022F00069F480FD0BC0C8010E943F0E9A83898358
:10230000CE0101960E94700F672B29F2E980FA80B6
:102310006FC0BE016F5B7F4FC8010E94980F7C01A8
:102320002B96EFAE2B972C96FFAE2C97CE01865BAB
:102330009F4F0E94700F672B09F05AC080FD58C054
:1023400023962EAD3FAD2397D50114968C9114970B
:10235000806814968C93149717963C932E93169737
:10236000C8010E943F0E2C969FAF8EAF2C97CE01D6
:10237000865B9F4F0E94700F672BA1F580FD32C0D6
:10238000C8010E94250E8A3309F068CFF801128631
:10239000808581508087B501C8010E9458102C9615
:1023A0009FAF8EAF2C97D80118968C9118978F5F9E
:1023B00018968C93CE01865B9F4F0E94700F672BFF
:1023C00089F480FD0FC0C8010E943F0E2C969FAF7C
:1023D0008EAF2C97CE01865B9F4F0E94700F672BAC
:1023E00009F456C02B96EFAC2B972C96FFAC2C978C
:1023F000C701C35BDF4F0FB6F894DEBF0FBECDBF82
:10240000DF91CF911F910F91FF90EF90DF90CF90D0
:10241000BF90AF909F908F9008950E940D0E42E064
:10242000E42E882309F4FECEF80112866F2DCE012A
:1024300001960E947F0FC8010E94250EF82E0E946F
:102440000D0E8111F1CF60E0CE0101960E947F0F49
:102450008D819E81892B79F0E981FA818B819C8124
:102460002F813885AC01421B530B82819381840FED
:10247000951F938382838D819E8123969FAF8EAF1C
:102480002397E12C892B09F0CDCE33E0E32ECACE81
:1024900080FDA8CFC8010E94250E8D3709F4F7CE24
:1024A000C8010E94250E8C3209F0D8CED8011A96A8
:1024B0001C92C8010E943F0E2C969FAF8EAF2C97A6
:1024C000CE01865B9F4F0E94700F672B09F08ACF69
:1024D00080FF79CE87CF23E0E22EF12C89CF95E0E3
:1024E000E92EFBCFBE016F5B7F4FC8010E94980FA2
:1024F0009A838983CE0101960E94700F672B09F0A1
:1025000005CF80FD03CF23962EAD3FAD2397F60177
:10251000848180788460848331832083BACEF501FE
:10252000EE0DF11D108289818437B9F4D60114961D
:102530008C9114978078856014968C9381E090E05C
:10254000A0E0B0E0F60180839183A283B383F12CF5
:10255000F4E0EF121CC080E01AC0863689F4D60180
:1025600014968C9114978078856014968C93F6015C
:10257000108211821282138281E0F12CF5E0E9CF02
:102580008E3639F481E0F12C44E0E41621F3E82E94
:102590002FCFB501CE018F5B9F4F0E94BA0C2596BD
:1025A0004CAD5DAD6EAD7FAD25972A968FAD2A9768
:1025B000873061F08830C1F0863009F04FCED60107
:1025C00014968C9114978078866006C0D601149674
:1025D0008C9114978078876014968C93F6014083D1
:1025E00051836283738355CE29964CAD5DAD6EAD3C
:1025F0007FAD2997D60114968C91149780788860C6
:1026000014968C93F601408351836283738341CE89
:102610002D968FAD2D972E969FAD2E97EACEFF92D9
:102620000F931F93CF93DF93D82F062FF42EC22F33
:1026300061E083E00E943E0110E061E0D13009F0EA
:1026400060E087E00E943E01B80185E00E9415022B
:10265000D0E081E061E0F81260E088E00E943E0195
:10266000BE0186E0DF91CF911F910F91FF900C94F6
:1026700015022F923F924F925F926F927F928F92AC
:102680009F92AF92BF92CF92DF92EF92FF920F9301
:102690001F93CF93DF93CDB7DEB72B970FB6F89488
:1026A000DEBF0FBECDBFE82ED62EF42E3D832C8389
:1026B00018010E94DB024B015C012E2D220F2B839F
:1026C0000FEF0F0DC12C1B8611E04F2D50E05A83E8
:1026D0004983C101B0E0A0E08E839F83A887B987BA
:1026E00010932203E09244031092230310924503B7
:1026F0006D2D8FEE93E00E94FD0581E00E94B604EF
:102700001093220310922303109245030E94840227
:102710002B013C0180911C03811169C091E0900F55
:102720009A8710931C0310931B03AFEFA0931A0317
:1027300010921903009318031093F7028091F70287
:10274000BB818B2B8093F7028091F602813009F0D8
:1027500091C01092F6020E9484022B013C018091EC
:10276000F7028093BB0080911E0390911F03A091FC
:102770002003B0912103892B8A2B8B2BA1F00E947F
:10278000840220911E0330911F0340912003509139
:102790002103641975098609970926173707480721
:1027A000590708F445C08091BC0083FDD8CF25ECC3
:1027B0002093BC000E9484022B013C0180911C03E9
:1027C000813009F45BC0809119034A85841718F49D
:1027D000509119035A87E8EFF2E0A7E0B2E080E0F9
:1027E0009A85891751F191919D938F5FF9CF8091CF
:1027F0001E0390911F03A0912003B0912103892B08
:102800008A2B8B2B09F486CF0E94840220911E0311
:1028100030911F03409120035091210364197509E1
:1028200086099709261737074807590708F072CF16
:1028300080911D030E9495041A8610927002AA8549
:10284000A0936F0280917002BA85B81709F448C04E
:1028500021143104A9F58FEE93E00E94B605EC81B6
:10286000FD812B85E20FF11D27FDFA9580832F5FF7
:102870002B87E8CF35EE3093BC009CCF80911E03B0
:1028800090911F03A0912003B0912103892B8A2BE3
:102890008B2B09F493CF0E94840220911E03309168
:1028A0001F03409120035091210364197509860983
:1028B0009709261737074807590708F07FCFB8CF81
:1028C0000E94DB02681979098A099B092E813F81E0
:1028D00048855985621773078407950708F4BBCFAD
:1028E0008F2D8C0D0F19CC24C3948F1508F4F8CEBE
:1028F00021143104D9F00E94DB02AB01BC0148195C
:1029000059096A097B09C101B0E0A0E048175907DD
:102910006A077B0758F03B85832F330F990B49815A
:102920005A818417950714F45FEF5B878B852B968C
:102930000FB6F894DEBF0FBECDBFDF91CF911F91D0
:102940000F91FF90EF90DF90CF90BF90AF909F904E
:102950008F907F906F905F904F903F902F90089551
:102960000F931F93CF93DF93CEE1D4E008EE13E0F3
:102970002FE134E042E067E488810E9439138981C5
:102980009A81982789279827DF91CF911F910F91DE
:102990000895CF93DF93C5E6D0E02197F9F00E9428
:1029A000B0149093280580932705092E000CAA0BDC
:1029B000BB0B4091390550913A0560913B057091F0
:1029C0003C05840F951FA61FB71F80933905909370
:1029D0003A05A0933B05B0933C05DFCF60913905E4
:1029E00070913A0580913B0590913C0524E630E0DA
:1029F00040E050E00E9424362093390530933A0598
:102A000040933B0550933C0580E0DF91CF910895C2
:102A10002F923F924F925F926F927F928F929F92EE
:102A2000AF92BF92CF92DF92EF92FF920F931F93DC
:102A3000CF93DF9300D000D000D01F92CDB7DEB788
:102A40001C01162F4D832F83B0900001B61609F498
:102A500090C020E041E060E081E00E940F130E94FE
:102A6000DB026B017C0180912D0590912E05A091D8
:102A70002F05B0913005A7019601281B390B4A0B91
:102A80005B0BCA01B9010E94053520E030E04AE73E
:102A900054E40E942B376093310570933205809384
:102AA000330590933405C0922D05D0922E05E09207
:102AB0002F05F09230050E94B01490932805809362
:102AC0002705092E000CAA0BBB0B4091390550912C
:102AD0003A0560913B0570913C056A017B01C81A7B
:102AE000D90AEA0AFB0AC701B6010E94073520E0AD
:102AF00030E043E053E40E942B37209131053091C0
:102B0000320540913305509134050E9466356B01C2
:102B10007C019F772DEC3CEC4CE45DE30E9400359A
:102B200087FDB2C0209135053091360540913705BB
:102B300050913805C701B6010E94BF366093350534
:102B40007093360580933705909338056093F601AE
:102B50007093F7018093F8019093F9010E94DB02D2
:102B60006093FA017093FB018093FC019093FD0147
:102B700014C00E94DB02C090FA01D090FB01E090EB
:102B8000FC01F090FD016C197D098E099F096B30E5
:102B900071058105910508F05CCFC090F601D090D9
:102BA000F701E090F801F090F901B11204C08091B2
:102BB000500581110AC010930001C092F201D09219
:102BC000F301E092F401F092F5012091F2013091CD
:102BD000F3014091F4015091F50129833A834B832D
:102BE0005C833F81632F70E090E080E00E940735B6
:102BF0002B013C014D81642F70E090E080E00E9449
:102C000007354B015C0129813A814B815C81C70109
:102C1000B6010E94BE36A30192010E946635A5014D
:102C200094010E94BF360E949D3710E006171707D7
:102C30007CF17E836D836A30710524F4AAE0B0E0F4
:102C4000BE83AD83A701960169817A818B819C81C6
:102C50000E94BE36A30192010E946635A50194012F
:102C60000E94BF360E949D370617170734F08B016C
:102C70006A30710514F40AE010E0232861F02D8118
:102C800040E0602F80E00BC0C12CD12C76014ACFF0
:102C90001E830D83D7CF202F41E06D8181E02796E1
:102CA0000FB6F894DEBF0FBECDBFDF91CF911F915D
:102CB0000F91FF90EF90DF90CF90BF90AF909F90DB
:102CC0008F907F906F905F904F903F902F900C94DB
:102CD0000F130F93A091D302B091D402AD014250D3
:102CE00051090FEF2AE04A30510540F4FA01E15E44
:102CF000FE4F20814B5E5E4FFA01008189309105C5
:102D000008F062C0FC01E957F94E0C941C3890168B
:102D1000A116AF16B616BF16C516CB16D416DD16FD
:102D2000119719F4262F41E01FC0462F6091FE0134
:102D300090E080E00E94081581E08093FE010F91F1
:102D40000895119719F4262F40E015C0462F609181
:102D5000FE0181E090E00E94081582E0EECF83E062
:102D60008093FE01262F40E081E006C084E080933E
:102D7000FE01262F41E080E00F910C940F1385E0B7
:102D80008093FE01262F2695CECF86E08093FE010C
:102D9000262F2695D9CF87E08093FE01862F869532
:102DA000262F41E0682FE0CF88E08093FE01862F38
:102DB0008695262F40E0682FDECF89E08093FE01C4
:102DC00020E041E060E0D0CF8AE0B7CF823069F008
:102DD00018F4813031F00895833051F0843059F087
:102DE000089582E090E00C94691683E090E0FBCFB8
:102DF00090E080E0F8CF81E090E0F5CFBF92CF92F5
:102E0000DF92EF92FF920F931F93CF93DF9300D047
:102E1000CDB7DEB7F82EE62EC42EB22ED02E08EE99
:102E200013E09E012E5F3F4F41E00E94391388233B
:102E300099F18C2D8B19990BAC014F5F5F4F81E09D
:102E400090E002C0880F991FBA94E2F70197042E10
:102E500001C0880F0A94EAF70D2D01C0000F4A95B2
:102E6000EAF7982F90952A8192238023892B8A83D1
:102E70008983AE014F5F5F4F6E2D8F2D0E942C0610
:102E80000F900F90DF91CF911F910F91FF90EF90D6
:102E9000DF90CF90BF90089580E0F2CFCF93DF9383
:102EA00000D01F92CDB7DEB7833021F08430C9F057
:102EB000811111C090E0A0E0942BA62BA9839A83E6
:102EC0002B836091FB03CE0101960E94C90B809178
:102ED000FB030E94260B0F900F900F90DF91CF9174
:102EE000089590E0A0E0942BA62BA093F30290937A
:102EF000F4022093F502EBCFFC0101900020E9F7EA
:102F00003197AF01481B590BBC0182E593E00C944B
:102F10003A030F931F93CF93DF93EC0160E08DE0B2
:102F20000E943E0183E090E00197F1F761E08DE0BF
:102F30000E943E0183E290E00197F1F760E08DE0AE
:102F40000E943E01EAEBF0E06491E6EAF0E0E491F1
:102F5000F0E0EE0FFF1FE057FF4F8591949100E4E2
:102F600012E42FE030E0462F0E94F4216115710534
:102F70008105910529F06F5F7F4F8F4F9F4F9F70A5
:102F8000CB016AE370E00E94F4376739710548F0BD
:102F900086E990E099838883DF91CF911F910F910B
:102FA000089579836883F8CF0E94413A0F931F9365
:102FB000CF93DF93EC0188819981009759F02A81A2
:102FC0003B812617370730F081E0DF91CF911F91C9
:102FD0000F9108958B016F5F7F4F0E948439009796
:102FE00059F0998388831B830A832C813D81232B8D
:102FF00059F7FC011082E8CF80E0E7CFEF92FF9213
:103000000F931F93CF93DF936115710541F480E017
:10301000DF91CF911F910F91FF90EF90089541158F
:103020005105B1F07B01EC010C811D81040F151FCE
:10303000B8010E94D617882351F3288139818C81E9
:103040009D81B701820F931F0E94583A1D830C8304
:1030500081E0DECFCF93DF93EC01888199810097E7
:1030600011F00E94FB38198218821D821C821B827B
:103070001A82DF91CF910895CF93DF93EC014091B5
:103080005A0550915B0560915605709157050E9455
:10309000FE17811103C0CE010E942A18CE01DF91D4
:1030A000CF9108950F931F93CF93DF9300D0CDB7A7
:1030B000DEB78C0169831A8241E050E0BE016F5F88
:1030C0007F4F0E94FE17811103C0C8010E942A1879
:1030D000C8010F900F90DF91CF911F910F9108952C
:1030E000CF93DF93EC01FB0101900020E9F73197CA
:1030F000AF01461B570B0E94FE17811103C0CE0182
:103100000E942A18CE01DF91CF910895EF92FF928D
:103110000F931F93CF93DF93EC017B018A01BA01D8
:103120000E94D61781110BC0CE010E942A18CE0131
:10313000DF91CF911F910F91FF90EF9008951D8324
:103140000C83B701888199810E94583AF0CFFB0126
:1031500001900020E9F73197AF01461B570B0C9403
:103160008618CF93DF9300D0CDB7DEB7FC01118274
:10317000108213821282158214822BE729831A820D
:10318000BE016F5F7F4F0E94A7180F900F90DF91D5
:10319000CF910895FC0180819181009711F00C94EA
:1031A000FB3808958DED92E00C94CA1885ED80935C
:1031B000BC0080911E0390911F03A0912003B09149
:1031C00021030796A11DB11D23E0B695A7959795FC
:1031D00087952A95D1F72091BC0024FD03C0109259
:1031E0001C03089540911E0350911F03609120031A
:1031F00070912103452B462B472B69F30097A105BE
:10320000B10541F025E32A95F1F700000197A109E6
:10321000B109E1CF80911D030C9495040F931F9386
:10322000CF93DF93FC01248125FF1FC08B01C08158
:10323000D1812097D1F06E817F8160177107E1F015
:103240000115110541F06115710529F0C8010E94B1
:103250004F3A882389F08D81882339F0F8E08F0276
:10326000C0011124C80FD91FE4CF80E090E0DF91A6
:10327000CF911F910F910895CE01F9CFCF92DF9298
:10328000EF92FF920F931F93CF93DF93EC01CA014C
:1032900008960E940E198C01009709F463C0FC0186
:1032A00084818F77873009F447C0883091F0863069
:1032B00009F058C0208131812C173D070CF44FC014
:1032C00091E080E0C217D3070CF090E0292F382F4F
:1032D00026C0BE01DD0F880B990B0E9407359B01AC
:1032E000AC01F80160817181828193810E94BE36B8
:1032F0006B017C0120E030E0A9010E94003587FDD0
:103300002EC0D1E0C0E020E030E0A901C701B60145
:103310000E94D33718160CF0D0E02D2F3C2F81E0FF
:10332000232B09F080E0DF91CF911F910F91FF9047
:10333000EF90DF90CF90089560817181C60FD71F05
:103340002FEF3FEFD7FD07C091E080E0CD2B09F4D0
:1033500090E0292F382F319521953109E0CF2FEFBB
:103360003FEFDDCF21E030E0DACF8F929F92AF9236
:10337000BF92CF92DF92EF92FF920F931F93CF9362
:10338000DF93CDB7DEB7C85ED1090FB6F894DEBFC4
:103390000FBECDBFCE010E969A8389839C838B830B
:1033A0008E010A521F4F1E830D8318870F838D8550
:1033B00080788D872091E1023091E2028091DD02D8
:1033C0009091DE02009711F48DEA91E0AE014F5F1B
:1033D0005F4F6A01F8015183408393838283820F98
:1033E000931F95838483578346838AE08087128660
:1033F000BE01675F7F4FC8010E945810CF51DF4F59
:1034000099838883C15ED040CE018F519F4F0E9427
:10341000700F672BB1F480FD14C0F80181858823FB
:1034200081F08D85982F907661F48F77835082306C
:1034300040F082E090E0CF51DF4F99838883C15EF6
:10344000D040CF51DF4F88819981C15ED040C951B2
:10345000DF4F99838883C75ED0406DEA71E08DEDC0
:1034600092E00E94A718CE0189519F4F0E94700FD1
:10347000672B09F057C080FD55C0CE0189519F4F81
:103480000E94700F672B09F04DC07C01F1E0EF2224
:10349000FF2480FD47C06EEA71E0CE0109960E94CC
:1034A0000E19FC01892B59F094819F77973008F011
:1034B0004DC0953008F054C0933008F06EC060EBFA
:1034C00071E0CE0109960E940E19FC01892B09F4C6
:1034D0009EC094819F779350923008F098C060818D
:1034E00071816115710509F492C086E595E00E942D
:1034F000A718F5E1EF16F10409F42AC20CF0B6C0E2
:1035000044E0E416F10409F490C10CF085C082E0B7
:10351000E816F10409F439C10CF06CC1EA94EF2803
:1035200009F4FFC0C851DF4F0FB6F894DEBF0FBEDD
:10353000CDBFDF91CF911F910F91FF90EF90DF9062
:10354000CF90BF90AF909F908F9008959730A9F043
:10355000983009F0B4CF80809180A280B3803CC0C5
:1035600080819181A281B381811520E89207A10514
:10357000B10508F0A4CF7C01A2CF80819181A28106
:10358000B381813040E89407A105B10508F097CFD9
:10359000EE24FF24E81AF90A92CF60817181C801F4
:1035A0000E94BA0CF80180819181A281B3812085AB
:1035B000273031F0283061F0263009F080CFD4CFA9
:1035C0008130F0E89F07A105B10508F078CFE0CF82
:1035D00084809580A680B78020E030E040E057EC02
:1035E000C501B4010E94D33787FD69CF20E03EEFCB
:1035F0004FEF56E4C501B4010E94003518160CF4D3
:103600005ECFC501B4010E949D377B0158CF86E58E
:1036100095E00E942A186DCF27E0E216F10409F424
:103620001FC148E0E416F10409F463C155E0E51652
:10363000F10409F077CF8DE090E09093D40280936D
:10364000D30262EB71E0CE0109960E940E190E942E
:10365000E30E8093620565EB71E0CE0109960E944E
:103660000E190E94E30E809363057FC085E6E8167D
:10367000F10409F42DC2BCF4F7E1EF16F10409F4EA
:1036800019C20CF4CAC187E090E044E6E416F104E4
:1036900009F048CF9093D4028093D30287ED91E054
:1036A0000E947C173FCF59E6E516F10409F435C2B4
:1036B0003CF5E6E6EE16F10409F034CF84E090E044
:1036C0009093D4028093D30262EB71E0CE0109960D
:1036D0000E940E190E94E30E80935C058150883091
:1036E00008F0D7C2E82FF0E0E858F44E0C941C38EC
:1036F0002B1E301E371E3A1E3D1E401E431E461E08
:10370000FAE6EF16F10409F42DC22EE6E216F104F2
:1037100009F008CF88E090E09093D4028093D30220
:1037200024C089E090E09093D4028093D30262EBAE
:1037300071E0CE0109960E940E190E94E30E80935B
:10374000640565EB71E0CE0109960E940E190E9496
:10375000E30E8093660568EB71E0CE0109960E9446
:103760000E190E94E30E80936505C8010E94B118EE
:10377000C8010E943C186BEB71E00E9470180E9417
:103780006703C8010E94CA18CDCE8AE090E09093EA
:10379000D4028093D30262EB71E0CE0109960E94BD
:1037A0000E190E94E30E80936B0565EB71E0CE016C
:1037B00009960E940E190E94E30E80936C0560EC3E
:1037C00071E0CE0109960E940E190E94820E60934C
:1037D0006D0570936E0580936F05909370050E9440
:1037E000DB026093D5027093D6028093D702909348
:1037F000D80298CE8BE090E09093D4028093D302CD
:1038000062EB71E0CE0109960E940E190E94E30E50
:1038100080936B0565EB71E0CE0109960E940E194D
:103820000E94E30E80936C05A0CF8CE090E0909313
:10383000D4028093D30262EB71E0CE0109960E941C
:103840000E190E94E30E8093710565EB71E0CE01C5
:1038500009960E940E190E94E30E8093720585CF8F
:103860008EE090E09093D4028093D30262EB71E0FB
:10387000CE0109960E940E190E94E30E80937305F3
:1038800065EB71E0CE0109960E940E190E94E30ECD
:103890008093740568EB71E0CE0109960E940E19C1
:1038A0000E94E30E8093750562EC71E0CE010996EB
:1038B0000E940E190E94E30E8093760560EC71E081
:1038C000CE0109960E940E190E94820E6093770520
:1038D000709378058093790590937A050E94DB02B6
:1038E0006093D9027093DA028093DB029093DC023A
:1038F00019CE8FE090E09093D4028093D30262EBD4
:1039000071E0CE0109960E940E190E94E30E809389
:10391000730565EB71E0CE0109960E940E190E94B5
:10392000E30E8093740568EB71E0CE0109960E9466
:103930000E190E94E30E8093750562EC71E0CE01D2
:1039400009960E940E190E94E30E809376050DCF12
:1039500062EB71E0CE0109960E940E190E94E30EFF
:10396000F82E83E495E00E9489174091550550E0B8
:1039700070E060E08091430590914405B0E0A0E0E4
:1039800021E0481759076A077B070CF420E02093D1
:103990004C05E1E0FE120FC0481759076A077B0784
:1039A0000CF48DC0C8010E94B118C8010E943C18D7
:1039B00065EC71E0E2CEF2E0FF12B4CD80914305F8
:1039C000909144059F938F9384ED91E09F938F9303
:1039D0001F930F930E945F3ACE018F519F4F0E9419
:1039E000B118CE018F519F4F0E943C186FE50E9485
:1039F0005218B8010E9470186DE70E9452180E9478
:103A00006703CE018F519F4F0E94CA180F900F90ED
:103A10000F900F900F900F9085CD62EB71E0CE016B
:103A200009960E940E190E94E30E811135C0809103
:103A30004505909146059F938F9384ED91E09F9368
:103A40008F931F930F930E945F3ACE018F519F4F28
:103A50000E94B118CE018F519F4F0E943C186FE514
:103A60000E945218B8010E9470186DE70E94521807
:103A70000E946703CE018F519F4F0E94CA180F907A
:103A80000F900F900F900F900F9086E090E0909322
:103A9000D4028093D30246CD813029F4809147052A
:103AA00090914805C8CF823081F780914905909167
:103AB0004A05C1CF80915005882309F473CFC8010E
:103AC0000E94B118C8010E943C186CEC71E055CE00
:103AD000A60162EB71E081E090E00E943E1988232C
:103AE00019F081E090E0D6CDA60162EB71E082E0B2
:103AF00090E00E943E19882319F082E090E0CACD40
:103B0000A60162EB71E083E090E00E943E198823F9
:103B100009F4C4CD83E090E0BDCDA60162EB71E075
:103B200081E090E00E943E19882321F080917B057E
:103B30008A3F70F0A60162EB71E082E090E00E94A3
:103B40003E19811109C080917B058093FB03EACC6B
:103B50008B5F80937B05F7CF80917B05882399F35A
:103B60008550F7CF62EB71E0CE0109960E940E19E5
:103B70000E94E30E9FEF980F953008F0D3CC83306E
:103B800028F0853098F1853009F45DC020910D0151
:103B900030910E01813039F52A50310930930E01F0
:103BA00020930D0180910D0190910E014F9734F4F7
:103BB0008EE190E090930E0180930D0180910D01B4
:103BC00090910E018E36910534F08EE690E0909340
:103BD0000E0180930D0160910D0170910E0182E044
:103BE0000E94780A9FCC265F3F4FD8CF20910B01CF
:103BF00030910C01833021F5265F3F4F30930C014B
:103C000020930B0180910B0190910C01181619065D
:103C100024F010920C0110920B0180910B019091F5
:103C20000C01843B910534F084EB90E090930C01FF
:103C300080930B0160910B0170910C0181E0D0CF5A
:103C40002A503109DBCF6AE570E082E00E94780AF1
:103C50006AE570E0F3CF1092D2021092D10262CCEA
:103C600081E090E09093D2028093D1025BCC82E01D
:103C700090E0F8CF83E090E0F5CF84E090E0F2CFE1
:103C800085E090E0EFCF86E090E0ECCF87E090E039
:103C9000E9CF88E090E0E6CF1F920F920FB60F9227
:103CA00011242F933F938F939F93AF93BF93809152
:103CB000C9029091CA02A091CB02B091CC0230917E
:103CC000C80223E0230F2D3758F50196A11DB11D21
:103CD0002093C8028093C9029093CA02A093CB029A
:103CE000B093CC028091CD029091CE02A091CF02F0
:103CF000B091D0020196A11DB11D8093CD02909389
:103D0000CE02A093CF02B093D002BF91AF919F910A
:103D10008F913F912F910F900FBE0F901F9018958C
:103D200026E8230F0296A11DB11DD2CF1F920F923C
:103D30000FB60F9211242F933F934F935F936F937E
:103D40007F938F939F93AF93BF93EF93FF93E091F4
:103D50000301F09104010995FF91EF91BF91AF919B
:103D60009F918F917F916F915F914F913F912F9193
:103D70000F900FBE0F901F9018951F920F920FB6C5
:103D80000F9211242F933F934F935F936F937F93E1
:103D90008F939F93AF93BF93EF93FF93E0910101B4
:103DA000F09102010995FF91EF91BF91AF919F9121
:103DB0008F917F916F915F914F913F912F910F90D4
:103DC0000FBE0F901F9018951F920F920FB60F9273
:103DD00011242F933F934F935F936F937F938F9310
:103DE0009F93AF93BF93EF93FF9382E593E00E947D
:103DF000C103FF91EF91BF91AF919F918F917F91FF
:103E00006F915F914F913F912F910F900FBE0F9047
:103E10001F9018951F920F920FB60F9211242F9397
:103E20008F939F93EF93FF93E0916203F09163036D
:103E30008081E0916803F091690382FD1BC090814D
:103E400080916B038F5F8F7320916C03821741F019
:103E5000E0916B03F0E0EE5AFC4F958F80936B037B
:103E6000FF91EF919F918F912F910F900FBE0F9027
:103E70001F9018958081F4CF1F920F920FB60F926A
:103E800011242F933F934F935F936F937F938F935F
:103E90009F93AF93BF93EF93FF938091B900887F77
:103EA000803609F44AC0F0F5883209F4A7C018F545
:103EB000803109F49BC0B8F4882309F4F9C0883034
:103EC00009F494C0FF91EF91BF91AF919F918F91B1
:103ED0007F916F915F914F913F912F910F900FBE06
:103EE0000F901F901895883109F488C0803251F7DF
:103EF00080931A0314C0803409F49DC040F48033C9
:103F0000B9F38833F9F680931A0385ECB0C0803595
:103F100009F485C0883509F496C0883499F60E9462
:103F2000D618D0CF883909F48CC038F5883729F0F5
:103F300050F4883611F0803729F683E080931C0313
:103F400010926A0257C0883809F47BC0803919F092
:103F5000803809F0B7CF80916A02803208F071C0D2
:103F6000E0916A0281E08E0F80936A028091BB002B
:103F7000F0E0E65BFD4F80833DC0803B39F0E0F42C
:103F8000803A09F479C0883A09F09CCF84E08093A4
:103F90001C031092490210924802E0916D02F091C8
:103FA0006E0209958091480281110FC081E08093D3
:103FB00048021092280209C0803C09F4A6CF883C30
:103FC00009F4A3CF883B09F07DCFE091490281E05D
:103FD0008E0F80934902F0E0E85DFD4F8081809371
:103FE000BB00909149028091480229C08091F7025C
:103FF0008093BB0085EC8093BC0064CF9091190343
:1040000080911803981758F5E091190381E08E0FFD
:1040100080931903F0E0E850FD4F8081E9CFE091F3
:10402000190381E08E0F809319038091BB00F0E0AB
:10403000E850FD4F808390911903809118039817E1
:10404000C8F285E8D8CFE091190381E08E0F809304
:1040500019038091BB00F0E0E850FD4F8083809110
:104060001B0381115CCF81E08093F60284EA809388
:10407000BC0010921C0326CF85EC8093BC001092EC
:104080001C0380916A02803230F4E0916A02F0E011
:10409000E65BFD4F108260916A0270E0E0916B0276
:1040A000F0916C028AE492E0099510926A020ACFBC
:1040B00010921A0334CF1F920F920FB60F92112451
:1040C0002F933F934F935F936F937F938F939F9320
:1040D000AF93BF93CF93DF93EF93FF9320912E0481
:1040E00030E0F901E458FF4F8491F901E255FF4FA8
:1040F000D491F901E656FF4FC491CC2379F0811198
:104100000E941501EC2FF0E0EE0FFF1FE057FF4F6C
:10411000A591B491EC91ED2381E009F480E0209128
:104120003204309133042F5F3F4F30933304209398
:10413000320490913104953618F096E090932D0456
:1041400090912D04943009F466C0B8F49230F1F0E7
:10415000933009F444C090913004992309F46BC062
:1041600081117CC080912F04882309F463C0809161
:104170002F0461E00E943E015EC0953009F457C0F3
:10418000963049F791E09093FE044FC08111E3CF40
:1041900020913204309133042436310528F41092F2
:1041A000330410923204D7CF1092FE0410923104DF
:1041B000E091310491E09E0F90933104F0E0209162
:1041C000320430913304EE0FFF1FE35DFB4F308765
:1041D0002783109233041092320493E019C0813087
:1041E00009F0B9CFE091310491E09E0F9093310432
:1041F000F0E02091320430913304EE0FFF1FE35DB5
:10420000FB4F30872783109233041092320494E0DE
:1042100090932D04A0CF882359F22091320430913D
:1042200033042536310508F496CF95E0F1CF81119E
:1042300092CFB5CF2D9AFF91EF91DF91CF91BF91A2
:10424000AF919F918F917F916F915F914F913F912E
:104250002F910F900FBE0F901F90189580912F04F3
:10426000882321F080912F0460E084CF2D98E3CF44
:104270001F920F920FB60F9211242F933F934F93DB
:104280005F936F937F938F939F93AF93BF93CF93DE
:10429000DF93EF93FF9380910602C0912305D0E056
:1042A00087FF24C01092850010928400809106023E
:1042B0008F5F8093060280910602082E000C990BF6
:1042C0008C179D0724F4809106028C30C4F18091F4
:1042D000840090918500049680349C4908F47AC04B
:1042E0008091840090918500049676C080910602AA
:1042F000082E000C990B8C179D07C4F6E09106025E
:104300008E2FEE0F990BFC01EE0FFF1FE80FF91F28
:10431000E150FB4F808186FFC9CFE09106028E2FCE
:10432000EE0F990BFC01EE0FFF1FE80FF91FE15094
:10433000FB4F808160E08F730E943E01B7CF2091D8
:10434000840030918500E09106028E2FEE0F990BCC
:10435000FC01EE0FFF1FE80FF91FE150FB4F8181B9
:104360009281820F931F9093890080938800E0913F
:1043700006028E2FEE0F990BFC01EE0FFF1FE80FC8
:10438000F91FE150FB4F808186FF11C0E0910602CA
:104390008E2FEE0F990BFC01EE0FFF1FE80FF91F98
:1043A000E150FB4F808161E08F730E943E01FF91DD
:1043B000EF91DF91CF91BF91AF919F918F917F91BD
:1043C0006F915F914F913F912F910F900FBE0F9082
:1043D0001F90189580E49CE9909389008093880051
:1043E0008FEF80930602E3CFCF92DF92EF92FF929E
:1043F0000F931F93E82FF92F05C0015011092109D0
:10440000310961F1908196239417B9F305C00150E9
:1044100011092109310911F1908196239413F7CFE5
:10442000C12CD12CE12CF12C0AC08FEFC81AD80A6C
:10443000E80AF80A0C151D052E053F0579F0808164
:104440008623841791F36C2D7D2D8E2D9F2D1F912A
:104450000F91FF90EF90DF90CF90089560E070E0B3
:1044600080E090E01F910F91FF90EF90DF90CF9050
:104470000895CF93109255031092540388EE93E061
:10448000A0E0B0E08093560390935703A0935803A5
:10449000B09359032FE731E0309353032093520335
:1044A00025EC30E030935F0320935E0324EC30E092
:1044B000309361032093600320EC30E0309363037A
:1044C0002093620321EC30E0309365032093640372
:1044D00022EC30E0309367032093660326EC30E053
:1044E000309369032093680310926B0310926C035E
:1044F00010926D0310926E031092F2031092F1036A
:104500008093F3039093F403A093F503B093F60321
:1045100081E991E09093F0038093EF039FEF9093F4
:10452000FB031092FD031092FC03109207041092FB
:1045300006044FEF5FEFBA01409302045093030467
:10454000609304047093050488E680931E0410921F
:104550000E0410920F041092100410921104109285
:104560001604109217041092180410921904109255
:104570001A0410921B0410921C0410921D048091C6
:1045800023058C3008F072C091E0980F90932305BA
:104590008093240590E0FC01EE0FFF1FE80FF91F48
:1045A000E150FB4F88EB9BE09283818389E080930D
:1045B0002E041092300410924B0510924C0510926C
:1045C0004D0510924E0510924F0581E080935005E5
:1045D00080E090E0A0EEB0E4809351059093520506
:1045E000A0935305B0935405C4E1C09355051092B0
:1045F00057051092560510925905109258051092C1
:104600005B0510925A0550E040E06DEA71E086E5E6
:1046100095E00E9486188AEF80935D0582E593E01D
:1046200090935F0580935E0586EB93E09093610520
:1046300080936005C0937B0510922D0510922E0586
:1046400010922F0510923005109235051092360504
:1046500010923705109238051092390510923A05DC
:1046600010923B0510923C05CF910895909324053C
:104670009DCFCF93DF93CDB7DEB7AB970FB6F8944E
:10468000DEBF0FBECDBF789484B5826084BD84B593
:10469000816084BD85B5826085BD85B5816085BD3D
:1046A00080916E00816080936E00109281008091F5
:1046B000810082608093810080918100816080937D
:1046C0008100809180008160809380008091B100A2
:1046D00084608093B1008091B00081608093B000CD
:1046E00080917A00846080937A0080917A00826061
:1046F00080937A0080917A00816080937A00809123
:104700007A00806880937A001092C100E091620381
:10471000F091630382E08083E0915E03F0915F0398
:104720001082E0916003F09161038FEC808310921E
:104730006A03E0916603F091670386E08083E0916D
:104740006403F0916503808180618083E09164035C
:10475000F0916503808188608083E0916403F0912B
:104760006503808180688083E0916403F091650334
:1047700080818F7D808360E081E10E946C0161E037
:1047800085E00E946C0161E086E00E946C0161E0BE
:1047900087E00E946C0161E088E00E946C0161E0AA
:1047A00083E00E946C0160E679E08AE090E00E947C
:1047B000A8018AE090E00E9411028AE590E00E9440
:1047C0008D0084EF91E00E944F0A60E679E08BE073
:1047D00090E00E94A8018BE090E00E9411028AE51F
:1047E00090E00E948D0084EF91E00E944F0AE091DA
:1047F00024058E2F90E0FC01EE0FFF1FE80FF91F3C
:10480000E150FB4F80818F7B808362E082E00E94D9
:104810006C018EE19AE090930201809301018091F6
:1048200069008C7F826080936900E89A809184029D
:10483000811145C010927602109275028FEF80931D
:10484000790280937A0280937B0280937C0280932A
:104850007D0280937E0281E080937F02109281022C
:104860001092800210927802109277028091460393
:1048700090914703892B31F483E792E090934703AB
:1048800080934603E0917102F0917202309721F01B
:1048900083E792E09583848383E792E090937202AA
:1048A0008093710210928302109282028DE691E051
:1048B000909374028093730281E080938402549AEF
:1048C00083EF92E0909376028093750281E090E00E
:1048D00090938102809380028091FE039091FF0368
:1048E000A0910004B0910104843C29E09207A10545
:1048F000B10520F484EC99E0A0E0B0E08093FE03E1
:104900009093FF03A0930004B093010484E180938B
:10491000FB03F89482E08093B0008093B10094E6AA
:104920009093B3001092B2008093700078948093BB
:104930002D041092310480912E0460E00E946C01DD
:1049400060E08CE00E946C0161E08DE00E946C01EF
:1049500060E080E10E946C0160E08FE00E946C01E9
:1049600060E08EE00E946C011092700210926F0263
:1049700010922303109245030E94770487E393E08B
:1049800090936E0280936D0288E393E090936C02A3
:1049900080936B026AE0862E912CA12CB12C08EE3C
:1049A00013E09E012F5F3F4F41E065E780911E04B9
:1049B0000E943913882339F089818E7790E095958C
:1049C000879580931F0410911F048CED91E00E9445
:1049D0007C17212F30E050E040E019A26E0181E207
:1049E000C80ED11CCA01B901A50194010E948D36DF
:1049F000605DD6016E936D012115310541055105AC
:104A000089F7109719F0CD010E947C178EEE91E086
:104A10000E947C176AE070E080E090E00E94A902AA
:104A2000F394BBE0FB1691F111501E3F08F0B7CF95
:104A300001E023E042E06BE680911E040E94FE1636
:104A400000E022E044E06BE180911E040E94FE162B
:104A500022E044E06CE180911E040E94FE16F0907A
:104A60001E0408EE13E09E012F5F3F4F41E06BE60E
:104A70008F2D0E94391389818F7B89838CA3AE018E
:104A80004C5D5F4F6BE68F2D0E942C060E94C9146F
:104A900082E593E00E947F0397FFFACF1092D40241
:104AA0001092D30288E19FE00FB6F894A895809306
:104AB00060000FBE9093600048E4442E44EF542EF3
:104AC00066246A94762CA8950E94DB0200918C02E1
:104AD00010918D0220918E0230918F02601B710B1C
:104AE000820B930B6B3071058105910508F44FC063
:104AF0000E94DB0260938C0270938D0280938E0281
:104B000090938F0281E10E947202BC01990F880B81
:104B1000990B0E9407352AE939E949E15DE30E94D2
:104B200066356B017C012AE037ED43EA5DE30E94C4
:104B300066359B01AC01C701B6010E94BF36609388
:104B40003D0570933E0580933F059093400560912D
:104B50003D0570913E0580913F0590914005209163
:104B600051053091520540915305509154050E94D2
:104B7000003587FFF2C0809105018F5F80930501AA
:104B80008A3F29F481E080934B05109205018EE065
:104B90000E94720290934A058093490540915E05F8
:104BA00050915F058091490590914A05092E000CAE
:104BB000AA0BBB0B00915D0510E030E020E08017F0
:104BC0009107A207B30744F070E060E021E04817C6
:104BD00059076A077B070CF420E020934D058FE00E
:104BE0000E947202909348058093470540915E05AC
:104BF00050915F058091470590914805092E000C62
:104C0000AA0BBB0B00915D0510E030E020E080179F
:104C10009107A207B30744F070E060E021E0481775
:104C200059076A077B070CF420E020934E0580E1CA
:104C30000E947202909346058093450540915E055F
:104C400050915F058091450590914605092E000C15
:104C5000AA0BBB0B00915D0510E030E020E080174F
:104C60009107A207B30744F070E060E021E0481725
:104C700059076A077B070CF420E020934F050E9438
:104C80004A0F8091900290910601981751F08093FD
:104C90000601823009F475C008F062C0813009F461
:104CA00069C00E94640C80914B058823E9F00E9442
:104CB000DB020091970210919802209199023091A5
:104CC0009A02601B710B820B930B693B7B40810541
:104CD000910550F00E94DB02609397027093980256
:104CE0008093990290939A020E94DB0200919702AE
:104CF000109198022091990230919A02DC01CB0127
:104D0000801B910BA20BB30B20914B05B7FD11C07B
:104D1000853FF1E09F07A105B10514F4211137C0CB
:104D2000845F9140A109B109853C9940A105B10575
:104D300010F0211167C08091D3029091D40282308B
:104D4000910509F4DAC008F06EC0009709F478C044
:104D500040E050E8019781F155C010924B0517CF04
:104D6000833091F0843009F09CCF1092D4021092DD
:104D7000D30297CF81E090E09093D4028093D30246
:104D800090CF82E090E0F8CF83E090E0F5CF8A3FCB
:104D90009105A105B105C8F4883C9105A105B105AF
:104DA00090F484369105A105B10540F4C297A105A0
:104DB000B10548F040E050E060E03EC08639910522
:104DC000A105B105B8F74FEFF6CF8039E1E09E07B6
:104DD000A105B10560F48E35F1E09F07A105B1058D
:104DE00090F78C329140A105B10520F7ECCF823CC1
:104DF00031E09307A105B105E8F2843F9140A10598
:104E0000B10508F38091D3029091D402039709F081
:104E100096C080915005811177C060E088E090E0F5
:104E20000E9469168CC08330910509F469C04EEE6A
:104E300052E86EEE049731F782E00E94BB0BE2CF9E
:104E40002223C9F04FEF50E060E082E00E94BB0BEC
:104E50006EE170E080E090E00E94A90240E050E046
:104E600060E082E00E94BB0B6EE170E080E090E0C9
:104E70000E94A902C7CF0E94DB0200919302109109
:104E800094022091950230919602601B710B820B67
:104E9000930B6F31710581059105C0F0109191025E
:104EA0000E94DB02609393027093940280939502B8
:104EB0009093960280919202811117C01F5F109308
:104EC0009102103519F481E0809392028EEE809366
:104ED000F30292E89093F4028093F502809191029C
:104EE0008093FB030E94260B8DCF115010939102EB
:104EF000113061F710929202E9CF4FEF5FEF5CCF74
:104F000040E050E06FEF98CF83E495E00E9489176E
:104F100080914305909144054091550550E070E023
:104F200060E0B0E0A0E0481759076A077B07D4F0BB
:104F30006AEF90E080E00E94691610929F028091D3
:104F4000D3029091D402029709F0E8C180915005F4
:104F50008111E2C060E088E090E00E946916109242
:104F6000A502DCC180919F0281110DC081E0809378
:104F70009F020E94DB0260939B0270939C028093CD
:104F80009D0290939E020E94DB02C0909B02D090F3
:104F90009C02E0909D02F0909E026C197D098E09A2
:104FA0009F09653F71408105910508F436CF0E9445
:104FB000DB0208E11CEF2FEF3FEF0C191D092E0952
:104FC0003F09DC01CB01800F911FA21FB31F853F5A
:104FD0009140A105B10508F420CF0E94DB0200E357
:104FE00018EF2FEF3FEF0C191D092E093F09DC01C7
:104FF000CB01800F911FA21FB31F853F9140A105D8
:10500000B10508F40ACF0E94DB02930182010C195A
:105010001D092E093F09DC01CB01800F911FA21F42
:10502000B31F853F9140A105B10508F4F6CE0E945B
:10503000DB020CE01EEF2FEF3FEF0C191D092E09CC
:105040003F09DC01CB01800F911FA21FB31F853FD9
:105050009140A105B10508F457C00E94DB0204E2AB
:105060001AEF2FEF3FEF0C191D092E093F09DC0144
:10507000CB01800F911FA21FB31F853F9140A10557
:10508000B10508F445C00E94DB020CE316EF2FEFD8
:105090003FEF0C191D092E093F09DC01CB01800FE0
:1050A000911FA21FB31F853F9140A105B10580F15B
:1050B0000E94DB0204E512EF2FEF3FEF0C191D09F0
:1050C0002E093F09DC01CB01800F911FA21FB31FE6
:1050D000853F9140A105B105B8F00E94DB0200E6D2
:1050E00010EF2FEF3FEF0C191D092E093F09DC01CE
:1050F000CB01800F911FA21FB31F853F9140A105D7
:10510000B10508F48ACE1BCF6FEF83E090E088CE24
:105110006FEF82E090E084CE8091A502209107019C
:105120009091A4022913CCC0811108C083E495E0BA
:105130000E948917809107018093A4028091430502
:10514000909144054091550550E070E060E0B0E07A
:10515000A0E0481759076A077B070CF4F4C0809158
:10516000A5028111B6C081E08093A5020E94DB02F6
:105170006093A0027093A1028093A2029093A30275
:105180000E94DB02C090A002D090A102E090A20297
:10519000F090A3026C197D098E099F09653F71404B
:1051A0008105910508F4AAC00E94DB020CE01EEF05
:1051B0002FEF3FEF0C191D092E093F09DC01CB0130
:1051C000800F911FA21FB31F85369105A105B10560
:1051D00008F49BC00E94DB0208EA1DEF2FEF3FEFAF
:1051E0000C191D092E093F09DC01CB01800F911F0D
:1051F000A21FB31F893E9340A105B10508F489C0E1
:105200000E94DB0200EC19EF2FEF3FEF0C191D0994
:105210002E093F09DC01CB01800F911FA21FB31F94
:1052200085369105A105B10508F487C00E94DB020F
:105230000CE519EF2FEF3FEF0C191D092E093F095F
:10524000DC01CB01800F911FA21FB31F853F91404E
:10525000A105B10508F455C00E94DB026C197D0957
:105260008E099F096859784081099109653F71400D
:105270008105910508F463C00E94DB026C197D0969
:105280008E099F096C587A40810991096D327140ED
:1052900081059105F0F10E94DB02930182010C1956
:1052A0001D092E093F09DC01CB01800F911FA21FB0
:1052B000B31F85369105A105B10580F584E026C0B0
:1052C000882309F433CF60E088E090E00E946916FB
:1052D0002DCF0E94DB020091A0021091A10220912B
:1052E000A2023091A302601B710B820B930B6D31F4
:1052F0007C408105910508F036CF42CF81E0809354
:1053000007016AEF83E090E007C082E08093070125
:1053100005C06AEF82E090E00E9469168091D30296
:105320009091D402019709F08CC1809150058111B0
:105330000EC060E088E090E031C183E0E7CF6AEF23
:1053400081E090E0E9CF6AEF90E080E006CE80E176
:105350000E9472028C018FE00E9472026C018EE04A
:105360000E94720240915E0550915F0570E060E01E
:1053700080905D05912CB12CA12C0D2C000CEE0819
:10538000FF08C814D904EA04FB040CF4C1C04C158E
:105390005D056E057F050CF4BBC068EC90E080E015
:1053A0000E94691681E08093090180930801809131
:1053B000D3029091D4028430910509F054C16FEF6B
:1053C0008091D1029091D2020E94691684E394E008
:1053D0009093EE028093ED028091310490E09093DF
:1053E000F0028093EF028091FE0490E09093F2022D
:1053F0008093F10280912D04853009F06FC0809177
:10540000360490913704885891098D35910508F03C
:1054100097C180913104843009F066C180913804CD
:10542000909139048097479708F05EC180913A04C3
:1054300090913B040997099708F056C11092EC022D
:105440001092EB028FEF9FEFDC018093E7029093C5
:10545000E802A093E902B093EA0283E090E090931F
:10546000E4028093E3020E94DB026093B002709337
:10547000B1028093B2029093B3028091E7029091BF
:10548000E802A091E902B091EA028F34F0EB9F07A5
:10549000FFEFAF07B10509F4EDC708F08FC78F3CE8
:1054A00030E393073FEFA307B10509F4ECC708F019
:1054B00053C78D3FF2E09F07FFEFAF07B10509F437
:1054C000DCC708F038C78B3B9D41A145B10509F405
:1054D000E0C782E080932D04109231048091AF02E6
:1054E000882311F40C947832EDA1E250EA3008F0F0
:1054F000D2C7F0E0E258F54D0C941C38DD32E432AE
:10550000E732EA32F132F832FB32FE320F33173330
:10551000092E000CAA0BBB0B88159905AA05BB0523
:105520002CF0481759076A077B07DCF5012E000CA1
:10553000220B330B081519052A053B05B4F580919C
:105540000901882389F0109209010E94DB0260930F
:10555000A6027093A7028093A8029093A90260E02C
:1055600088E090E00E9469160E94DB02C090A602CB
:10557000D090A702E090A802F090A9026C197D09D2
:105580008E099F09693C710581059105B8F48091E8
:105590000801882341F16AEF83E090E00E946916D8
:1055A00006CF68EC83E090E0FBCE4017510762071E
:1055B00073072CF268EC82E090E0F2CE0E94DB02EE
:1055C00000EC19EF2FEF3FEF0C191D092E093F09D1
:1055D000DC01CB01800F911FA21FB31F81399140C5
:1055E000A105B105A0F20E94DB026C197D098E09AC
:1055F0009F09685C710981099109693775408105C6
:105600009105B8F00E94DB02930182010C191D097B
:105610002E093F09DC01CB01800F911FA21FB31F90
:10562000853F9140A105B10508F0C1CE1092080157
:1056300080CE80910801882329F36AEF82E090E010
:10564000ADCF809109018111B2CE81E08093080134
:10565000809309011092A6021092A7021092A8024C
:105660001092A902A4CE892B09F0B0CE60E088E0A8
:1056700090E00E94691680910A01882309F4A6CE61
:105680000E94DB020091AB021091AC022091AD02AE
:105690003091AE02601B710B820B930B653171056B
:1056A0008105910508F492CE0E94DB026093AB0263
:1056B0007093AC028093AD029093AE020E944A0FA9
:1056C000882379F08091AA028F5F8093AA0280914B
:1056D000AA028B3008F47ACE10920A010E94C914F3
:1056E00075CE1092AA02F3CF80913104843440F138
:1056F0008091380490913904825491098E9700F575
:1057000090E080E040E050E0BA01FC01E65CFB4F35
:1057100020813181295031092930310588F4FC017B
:10572000E45CFB4F20813181275131092231310561
:1057300028F1208131812650310927303105B8F117
:10574000809131048A3108F466C0809134049091CC
:105750003504843F914080F51092EC021092EB02E8
:105760008FEF9FEFDC018093E7029093E802A09314
:10577000E902B093EA028BE090E071CE440F551F2E
:10578000661F771F416004968038910509F0BDCFF0
:1057900080E290E09093EC028093EB024093E7026A
:1057A0005093E8026093E9027093EA0256CE440FE8
:1057B000551F661F771FE7CF8091360490913704FD
:1057C00085974B9740F5EDE2F4E082E090E040E011
:1057D00050E0BA01DC011196209131042A171B0612
:1057E00009F00CF4F3C023853485275031092730A4
:1057F000310508F0EAC025853685235131092F305F
:10580000310508F4D5C0258536852A50310929305F
:10581000310508F4D5C0809131048A31F0F18091CE
:105820003404909135048032934008F495CF8091F0
:10583000360490913704C697869778F5809138049E
:1058400090913904C697869740F5EDE2F4E083E045
:1058500090E040E050E0BA01DC0111962091310463
:105860002A171B0609F00CF4D8C0258536852C5064
:1058700031092B30310508F0CFC0278530892552FA
:1058800031092B31310508F4BAC0278530892C50F5
:1058900031092A30310508F4BAC0809131048232CE
:1058A00038F180913604909137040697079700F5F8
:1058B000EDE2F4E082E090E040E050E0BA01DC018B
:1058C0001196209131042A171B0609F00CF4D1C05F
:1058D000238534852E5131092731310508F4B4C0B0
:1058E000238534852C5031092B30310508F4BBC099
:1058F0001BA21AA281E090E09A83898380913104EF
:105900008D3008F4E7C049E753E0BE016E5D7F4F7C
:10591000CE0101960E949206892B09F0DBC049E76F
:1059200053E0BE016E5D7F4FCE0101960E9492064C
:10593000019709F0CFC049E753E0BE016E5D7F4F8C
:10594000CE0101960E9492068C01892B09F0C2C0FB
:10595000812C912C54012091310489819A8128173E
:10596000190609F00CF4A7C049E753E0BE016E5DCB
:105970007F4FCE0101960E9492067C0149E753E0D9
:10598000BE016E5D7F4FCE0101960E949206B1E08E
:10599000EB16F10409F086C0892B09F09BC0880C36
:1059A000991CAA1CBB1C689480F80F5F1F4FD3CFB3
:1059B000440F551F661F771F4160029634960ACF29
:1059C000440F551F661F771FF8CFCD01019795959E
:1059D00087959093EC028093EB020C972CF4109235
:1059E000EC021092EB0217CF4093E7025093E802CB
:1059F0006093E9027093EA0284E090E030CD440FB6
:105A0000551F661F771F41600296349625CF440FBD
:105A1000551F661F771FF8CFCD0101979595879584
:105A20009093EC028093EB020C972CF41092EC0212
:105A30001092EB0232CF4093E7025093E80260935A
:105A4000E9027093EA0297CE440F551F661F771F35
:105A5000416025853685349623503109253031053E
:105A600038F402962CCF440F551F661F771FF1CFD5
:105A7000CD010197959587959093EC028093EB0269
:105A800040972CF41092EC021092EB0231CF40932D
:105A9000E7025093E8026093E9027093EA028CE017
:105AA00090E0DDCCEF28B1F40197A1F4880C991CAB
:105AB000AA1CBB1C7ACF1093EC020093EB028092DD
:105AC000E7029092E802A092E902B092EA0281E035
:105AD00090E0C5CC1BA21AA281E090E09A83898352
